:020000040800F2
:1000000000280020A50B0008350B00083B0B00085A
:10001000410B0008470B00084D0B000800000000D2
:10002000000000000000000000000000530B00086A
:100030005F0B0008000000006B0B0008770B000846
:10004000ED0B0008ED0B0008ED0B0008ED0B0008B0
:10005000ED0B0008ED0B0008ED0B0008ED0B0008A0
:10006000ED0B0008ED0B0008ED0B0008ED0B000890
:10007000ED0B0008ED0B0008ED0B0008ED0B000880
:10008000ED0B0008ED0B0008ED0B0008ED0B000870
:10009000ED0B0008ED0B0008ED0B0008ED0B000860
:1000A000ED0B0008ED0B0008ED0B0008ED0B000850
:1000B000850B0008ED0B000800000000ED0B0008A8
:1000C000ED0B00080000000000000000ED0B000830
:1000D00000000000ED0B0008ED0B00080000000020
:1000E000ED0B0008ED0B0008ED0B00080000000010
:1000F0000000000000000000000000000000000000
:0C01000000000000000000005FF808F1A3
:10010C0010B5054C237833B9044B13B10448AFF345
:10011C0000800123237010BD1C0000200000000093
:10012C005822000808B5034B1BB103490348AFF331
:10013C00008008BD000000002000002058220008AC
:10014C0080B500AF00220121114801F05BF80022BC
:10015C0002210F4801F056F8002204210C4801F04E
:10016C0051F8002208210A4801F04CF80022102115
:10017C00074801F047F800222021054801F042F819
:10018C0001224021024801F03DF800BF80BD00BFB4
:10019C00000C014080B500AF01220121114801F093
:1001AC0031F8002202210F4801F02CF80022042122
:1001BC000C4801F027F8012208210A4801F022F826
:1001CC0001221021074801F01DF8012220210548C9
:1001DC0001F018F801224021024801F013F800BF89
:1001EC0080BD00BF000C014080B500AF0022012192
:1001FC00114801F007F8002202210F4801F002F823
:10020C00012204210C4800F0FDFF002208210A48BD
:10021C0000F0F8FF00221021074800F0F3FF012244
:10022C002021054800F0EEFF00224021024800F09A
:10023C00E9FF00BF80BD00BF000C014080B500AFDE
:10024C0000220121114800F0DDFF002202210F489D
:10025C0000F0D8FF002204210C4800F0D3FF00224C
:10026C0008210A4800F0CEFF01221021074800F0B7
:10027C00C9FF01222021054800F0C4FF00224021C3
:10028C00024800F0BFFF00BF80BD00BF000C014062
:10029C0080B500AF01220121114800F0B3FF00220C
:1002AC0002210F4800F0AEFF002204210C4800F0A0
:1002BC00A9FF012208210A4800F0A4FF0122102105
:1002CC00074800F09FFF00222021054800F09AFF0C
:1002DC0000224021024800F095FF00BF80BD00BF06
:1002EC00000C014080B500AF00220121114800F044
:1002FC0089FF012202210F4800F084FF0022042113
:10030C000C4800F07FFF002208210A4800F07AFF19
:10031C0001221021074800F075FF0022202105481A
:10032C0000F070FF00224021024800F06BFF00BF7C
:10033C0080BD00BF000C014080B500AF0022012140
:10034C00114800F05FFF012202210F4800F05AFF14
:10035C00002204210C4800F055FF002208210A4815
:10036C0000F050FF00221021074800F04BFF002244
:10037C002021054800F046FF00224021024800F0F1
:10038C0041FF00BF80BD00BF000C014080B500AF35
:10039C0000220121114800F035FF002202210F48F4
:1003AC0000F030FF002204210C4800F02BFF01224A
:1003BC0008210A4800F026FF01221021074800F00E
:1003CC0021FF01222021054800F01CFF01224021C1
:1003DC00024800F017FF00BF80BD00BF000C0140B9
:1003EC0080B500AF00220121114800F00BFF002264
:1003FC0002210F4800F006FF002204210C4800F0F7
:10040C0001FF002208210A4800F0FCFE0022102106
:10041C00074800F0F7FE00222021054800F0F2FE0C
:10042C0000224021024800F0EDFE00BF80BD00BF5D
:10043C00000C014080B500AF00220121114800F0F2
:10044C00E1FE002202210F4800F0DCFE0022042114
:10045C000C4800F0D7FE002208210A4800F0D2FE1A
:10046C0001221021074800F0CDFE00222021054872
:10047C0000F0C8FE00224021024800F0C3FE00BF7D
:10048C0080BD00BF000C014080B582B000AF786029
:10049C007B68092B34D801A252F823F0D104000850
:1004AC00D7040008DD040008E3040008E904000890
:1004BC00EF040008F5040008FB040008010500081F
:1004CC0007050008FFF73CFE1BE0FFF763FE18E092
:1004DC00FFF78AFE15E0FFF7B1FE12E0FFF7D8FE3A
:1004EC000FE0FFF7FFFE0CE0FFF726FF09E0FFF738
:1004FC004DFF06E0FFF774FF03E0FFF79BFF00E002
:10050C0000BF00BF0837BD4680BD00BF80B582B0BC
:10051C0000AF78607B68032B7AD801A252F823F0E5
:10052C003D05000875050008AD050008E505000847
:10053C0000224021394800F065FE01228021374815
:10054C0000F060FE01224FF48071344800F05AFE36
:10055C0001224FF40071314800F054FE304B1B68FF
:10056C001846FFF791FF54E0012240212B4800F080
:10057C0049FE00228021294800F044FE01224FF45C
:10058C008071264800F03EFE01224FF40071234892
:10059C0000F038FE224B5B681846FFF775FF38E019
:1005AC00012240211D4800F02DFE012280211B4814
:1005BC0000F028FE00224FF48071184800F022FE53
:1005CC0001224FF40071154800F01CFE144B9B687F
:1005DC001846FFF759FF1CE0012240210F4800F09C
:1005EC0011FE012280210D4800F00CFE01224FF477
:1005FC0080710A4800F006FE00224FF40071074893
:10060C0000F000FE064BDB681846FFF73DFF00E0EC
:10061C0000BF00BF0837BD4680BD00BF00080140C9
:10062C000000002080B483B000AF6246C7F804C05D
:10063C005368194981FB03018910DB17CB1A174941
:10064C000B605068144B83FB00139910C317C91A25
:10065C000B469B000B445B00C11A104B596013688E
:10066C000D4981FB03018910DB17CB1A0B498B60F9
:10067C001168094B83FB01239A10CB17D21A13462E
:10068C009B0013445B00CA1A044BDA6000BF0C37A2
:10069C00BD4680BC704700BF6766666600000020E0
:1006AC0080B584B000AF07F11803BB6000F09AFA74
:1006BC0000F042F800F0C8F800F07AF81C4801F09D
:1006CC0001FA4FF47A7000F083F94FF4FA7000F0ED
:1006DC00C9F90F237B6008233B603223FB60FB6866
:1006EC000133FB60FB683B2B04DD0023FB603B68A4
:1006FC0001333B603B683B2B04DD00233B607B6894
:10070C0001337B607B68172B01DD00237B603B464C
:10071C009C46FFF787FF4FF47A7000F0C5FA202152
:10072C00044800F087FD4FF47A7000F0BDFAD6E76C
:10073C003C0000200008014080B590B000AF07F1EC
:10074C00180328220021184601F078FD3B1D0022D9
:10075C001A605A609A60DA601A610223BB61012345
:10076C00BB621023FB6200237B6307F1180318465E
:10077C0000F07AFD0346002B01D000F023F90F2383
:10078C007B600023BB600023FB6000233B610023E4
:10079C007B613B1D0021184600F0E8FF0346002B4F
:1007AC0001D000F00FF900BF4037BD4680BD0000FE
:1007BC0080B586B000AF07F1080300221A605A60BA
:1007CC009A60DA603B4600221A605A601D4B4FF06B
:1007DC0080421A601B4B41F63F725A60194B002243
:1007EC009A60184B0922DA60164B00221A61154BDD
:1007FC0000229A61134801F015F90346002B01D031
:10080C0000F0E0F84FF48053BB6007F10803194681
:10081C000C4801F0ABFA0346002B01D000F0D2F8E3
:10082C0000233B6000237B603B461946054801F0E2
:10083C0077FC0346002B01D000F0C4F800BF18373A
:10084C00BD4680BD3C00002080B586B000AF07F1EE
:10085C00080300221A605A609A60DA60214B9B6987
:10086C00204A43F0040393611E4B9B6903F004037D
:10087C007B607B681B4B9B691A4A43F008039361AE
:10088C00184B9B6903F008033B603B6800224FF454
:10089C007C71154800F0B6FC00227F21134800F053
:1008AC00B1FC4FF47C73BB600123FB6000233B6104
:1008BC0002237B6107F1080319460B4800F026FB65
:1008CC007F23BB600123FB6000233B6102237B6120
:1008DC0007F108031946054800F018FB00BF18374C
:1008EC00BD4680BD0010024000080140000C0140D4
:1008FC0080B582B000AF786000F086F82D4B1B6895
:10090C00012B43D12C4B1B68042B41D801A252F86C
:10091C0023F000BF35090008490900085D090008EB
:10092C0071090008850900080020FFF7EFFD224B34
:10093C0001221A60FA2000F04BF82AE00120FFF7A0
:10094C00E5FD1D4B02221A60FA2000F041F820E070
:10095C000220FFF7DBFD184B03221A60FA2000F08F
:10096C0037F816E00320FFF7D1FD134B04221A6071
:10097C00FA2000F02DF80CE00020FFF7C7FD0E4B1D
:10098C0001221A60FA2000F023F802E000BF00E018
:10099C0000BF0A4B1B68012B07D11021084800F03F
:1009AC0049FC4FF4FA7000F05DF800BF0837BD4603
:1009BC0080BD00BF8800002038000020900000207F
:1009CC000008014080B400AF72B600BFFEE7000023
:1009DC0080B483B000AF78607B68084A82FB031256
:1009EC009210DB17D31A064A1360064B00221A60CA
:1009FC0000BF0C37BD4680BC704700BF676666669B
:100A0C00840000208800002080B400AF114B1B68CC
:100A1C00002B0BDD0F4B1B68013B0E4A13600D4B7B
:100A2C001B68002B02DC0C4B01221A600B4B1B6861
:100A3C00002B0BDD094B1B68013B084A1360074B6D
:100A4C001B68002B02DC064B01221A6000BFBD465E
:100A5C0080BC704784000020880000208C0000209F
:100A6C009000002080B483B000AF78607B68084AA7
:100A7C0082FB03129210DB17D31A064A1360064B43
:100A8C0000221A6000BF0C37BD4680BC704700BF07
:100A9C00676666668C0000209000002080B483B0EE
:100AAC0000AF0E4B9B690D4A43F0010393610B4B56
:100ABC009B6903F001037B607B68084BDB69074A89
:100ACC0043F08053D361054BDB6903F080533B60EB
:100ADC003B6800BF0C37BD4680BC7047001002401D
:100AEC0080B584B000AF78607B681B68B3F1804F31
:100AFC0013D10C4BDB690B4A43F00103D361094B57
:100B0C00DB6903F00103FB60FB68002200211C2061
:100B1C0000F0C5F91C2000F0DEF900BF1037BD460F
:100B2C0080BD00BF0010024080B400AFFEE780B46F
:100B3C0000AFFEE780B400AFFEE780B400AFFEE785
:100B4C0080B400AFFEE780B400AF00BFBD4680BCF0
:100B5C00704780B400AF00BFBD4680BC704780B406
:100B6C0000AF00BFBD4680BC704780B500AF00F041
:100B7C007FF800BF80BD000080B500AF024800F0D8
:100B8C00EDFF00BF80BD00BF3C00002080B400AF73
:100B9C0000BFBD4680BC7047FFF7F8FF0B480C49FF
:100BAC000C4A002302E0D458C4500433C4188C42BD
:100BBC00F9D3094A094C002301E013600432A24224
:100BCC00FBD301F017FBFFF76BFD70470000002013
:100BDC001C0000209C2200081C0000209800002013
:100BEC00FEE7000080B500AF084B1B68074A43F0D6
:100BFC0010031360032000F047F90F2000F008F8F1
:100C0C00FFF74CFF0023184680BD00BF00200240B8
:100C1C0080B582B000AF7860124B1A68124B1B780B
:100C2C0019464FF47A73B3FBF1F3B2FBF3F31846A6
:100C3C0000F05FF90346002B01D001230EE07B6826
:100C4C000F2B0AD8002279684FF0FF3000F027F9FB
:100C5C00064A7B681360002300E00123184608371E
:100C6C00BD4680BD1000002018000020140000209C
:100C7C0080B400AF054B1B781A46054B1B68134418
:100C8C00034A136000BFBD4680BC704718000020AB
:100C9C009400002080B400AF024B1B681846BD4680
:100CAC0080BC70479400002080B584B000AF7860A1
:100CBC00FFF7F0FFB8607B68FB60FB68B3F1FF3FA8
:100CCC0005D00A4B1B781A46FB681344FB6000BF27
:100CDC00FFF7E0FF0246BB68D31AFA689A42F7D8CE
:100CEC0000BF00BF1037BD4680BD00BF18000020FC
:100CFC0080B485B000AF78607B6803F00703FB60BD
:100D0C000C4BDB68BB60BA684FF6FF031340BB604B
:100D1C00FB681A02BB68134343F0BF6343F4003310
:100D2C00BB60044ABB68D36000BF1437BD4680BCAF
:100D3C00704700BF00ED00E080B400AF044BDB68EF
:100D4C001B0A03F007031846BD4680BC704700BF62
:100D5C0000ED00E080B483B000AF0346FB7197F95F
:100D6C000730002B0BDBFB7903F01F02064997F9C8
:100D7C0007305B09012000FA02F241F8232000BF82
:100D8C000C37BD4680BC704700E100E080B483B0F6
:100D9C0000AF03463960FB7197F90730002B0ADB73
:100DAC003B68DAB20C4997F907301201D2B20B4406
:100DBC0083F800230AE03B68DAB20849FB7903F0B8
:100DCC000F03043B1201D2B20B441A7600BF0C374E
:100DDC00BD4680BC704700BF00E100E000ED00E0C4
:100DEC0080B489B000AFF860B9607A60FB6803F03A
:100DFC000703FB61FB69C3F10703042B28BF042322
:100E0C00BB61FB690433062B02D9FB69033B00E091
:100E1C0000237B614FF0FF32BB6902FA03F3DA4324
:100E2C00BB681A407B699A404FF0FF317B6901FA2D
:100E3C0003F3D9437B680B40134318462437BD4654
:100E4C0080BC704780B582B000AF78607B68013B96
:100E5C00B3F1807F01D301230FE00A4A7B68013B89
:100E6C0053600F214FF0FF30FFF790FF054B00222E
:100E7C009A60044B07221A60002318460837BD46B7
:100E8C0080BD00BF10E000E080B582B000AF78609C
:100E9C007868FFF72DFF00BF0837BD4680BD80B5D1
:100EAC0086B000AF0346B9607A60FB7300237B61A8
:100EBC00FFF742FF78617A68B9687869FFF790FFAD
:100ECC00024697F90F3011461846FFF75FFF00BF37
:100EDC001837BD4680BD80B582B000AF0346FB71AC
:100EEC0097F907301846FFF735FF00BF0837BD46A6
:100EFC0080BD80B582B000AF78607868FFF7A2FF44
:100F0C00034618460837BD4680BD000080B48BB040
:100F1C0000AF7860396000237B6200233B6261E1A3
:100F2C0001227B6A02FA03F3FB613B681B68FA69D6
:100F3C001340BB61BA69FB699A4240F050813B682F
:100F4C005B68974A93425ED0954A934275D8954A0E
:100F5C00934258D0934A93426FD8934A934252D0BB
:100F6C00914A934269D8914A93424CD08F4A93420A
:100F7C0063D88F4A934246D08D4A93425DD8122B48
:100F8C002AD8122B59D801A252F823F013100008BA
:100F9C00ED0F0008FF0F0008411000084710000873
:100FAC0047100008471000084710000847100008B9
:100FBC0047100008471000084710000847100008A9
:100FCC004710000847100008471000084710000899
:100FDC00F50F000809100008764A934213D02CE054
:100FEC003B68DB683B6229E03B68DB6804333B62AF
:100FFC0024E03B68DB6808333B621FE03B68DB683E
:10100C000C333B621AE03B689B68002B02D1042333
:10101C003B6213E03B689B68012B05D108233B62C4
:10102C007B68FA691A6109E008233B627B68FA69FC
:10103C005A6103E000233B6200E000BFBB69FF2B59
:10104C0001D87B6801E07B6804337B61BB69FF2BB3
:10105C0002D87B6A9B0002E07B6A083B9B003B61E9
:10106C007B691A680F213B6901FA03F3DB431A40D1
:10107C00396A3B6901FA03F31A437B691A603B68CE
:10108C005B6803F08053002B00F0A9804A4B9B69EE
:10109C00494A43F001039361474B9B6903F00103F9
:1010AC00BB60BB68454A7B6A9B08023352F823300D
:1010BC00FB607B6A03F003039B000F2202FA03F32D
:1010CC00DB43FA681340FB607B683D4A93420DD0CA
:1010DC007B683C4A934207D07B683B4A934201D1E0
:1010EC00022304E0032302E0012300E000237A6AD8
:1010FC0002F0030292009340FA681343FB602F49FD
:10110C007B6A9B080233FA6841F823203B685B68D2
:10111C0003F48013002B06D02C4B9A682B49BB6927
:10112C0013438B6006E0294B9A68BB69DB43274964
:10113C0013408B603B685B6803F40013002B06D0F4
:10114C00224BDA682149BB691343CB6006E01F4B85
:10115C00DA68BB69DB431D491340CB603B685B68B5
:10116C0003F40033002B06D0184B5A681749BB699F
:10117C0013434B6006E0154B5A68BB69DB431349BC
:10118C0013404B603B685B6803F48033002B1FD02B
:10119C000E4B1A680D49BB6913430B601FE000BF6F
:1011AC00000032100000311000002210000021104D
:1011BC00000012100000111000100240000001404D
:1011CC0000080140000C01400010014000040140E7
:1011DC000B4B1A68BB69DB43094913400B607B6AF4
:1011EC0001337B623B681A687B6A22FA03F3002B9B
:1011FC007FF496AE00BF00BF2C37BD4680BC704755
:10120C000004014080B483B000AF78600B467B8053
:10121C0013467B707B78002B03D07A887B681A612D
:10122C0003E07B881A047B681A6100BF0C37BD464B
:10123C0080BC704780B485B000AF78600B467B8073
:10124C007B68DB68FB607A88FB6813401A04FB68D8
:10125C00D9437B880B401A437B681A6100BF143753
:10126C00BD4680BC7047000080B586B000AF78608A
:10127C007B68002B01D1012372E27B681B6803F0B1
:10128C000103002B00F08780924B5B6803F00C038A
:10129C00042B0CD08F4B5B6803F00C03082B12D182
:1012AC008C4B5B6803F48033B3F5803F0BD1894BD7
:1012BC001B6803F40033002B6CD07B685B68002B3D
:1012CC0068D101234CE27B685B68B3F5803F06D1A3
:1012DC00804B1B687F4A43F4803313602EE07B689D
:1012EC005B68002B0CD17B4B1B687A4A23F4803350
:1012FC001360784B1B68774A23F4802313601DE03E
:10130C007B685B68B3F5A02F0CD1724B1B68714ADC
:10131C0043F4802313606F4B1B686E4A43F4803395
:10132C0013600BE06B4B1B686A4A23F48033136029
:10133C00684B1B68674A23F4802313607B685B68E7
:10134C00002B13D0FFF7A6FC386108E0FFF7A2FCD6
:10135C0002463B69D31A642B01D9032300E25D4B8F
:10136C001B6803F40033002BF0D014E0FFF792FC61
:10137C00386108E0FFF78EFC02463B69D31A642BF8
:10138C0001D90323ECE1534B1B6803F40033002B0E
:10139C00F0D100E000BF7B681B6803F00203002B58
:1013AC0063D04C4B5B6803F00C03002B0BD0494B08
:1013BC005B6803F00C03082B1CD1464B5B6803F4F1
:1013CC008033002B16D1434B1B6803F00203002B18
:1013DC0005D07B681B69012B01D00123C0E13D4B7B
:1013EC001B6823F0F8027B685B69DB003949134307
:1013FC000B603AE07B681B69002B20D0364B012236
:10140C001A60FFF747FC386108E0FFF743FC02461F
:10141C003B69D31A022B01D90323A1E12D4B1B6885
:10142C0003F00203002BF0D02A4B1B6823F0F802C8
:10143C007B685B69DB00274913430B6015E0264B87
:10144C0000221A60FFF726FC386108E0FFF722FC47
:10145C0002463B69D31A022B01D9032380E11D4BB1
:10146C001B6803F00203002BF0D17B681B6803F0B0
:10147C000803002B3AD07B689B69002B19D0174BC3
:10148C0001221A60FFF706FC386108E0FFF702FC46
:10149C0002463B69D31A022B01D9032360E10D4BA1
:1014AC005B6A03F00203002BF0D0012000F09CFAE1
:1014BC001CE00A4B00221A60FFF7ECFB38610FE0CE
:1014CC00FFF7E8FB02463B69D31A022B08D903232A
:1014DC0046E100BF0010024000004242800442423C
:1014EC00924B5B6A03F00203002BE9D17B681B680B
:1014FC0003F00403002B00F0A6800023FB758B4B3C
:10150C00DB6903F08053002B0DD1884BDB69874AD4
:10151C0043F08053D361854BDB6903F08053BB6090
:10152C00BB680123FB75824B1B6803F48073002B93
:10153C0018D17F4B1B687E4A43F480731360FFF70E
:10154C00A9FB386108E0FFF7A5FB02463B69D31AFB
:10155C00642B01D9032303E1754B1B6803F48073DF
:10156C00002BF0D07B68DB68012B06D16F4B1B6A1C
:10157C006E4A43F0010313622DE07B68DB68002B9D
:10158C000CD16A4B1B6A694A23F001031362674B47
:10159C001B6A664A23F0040313621CE07B68DB6859
:1015AC00052B0CD1614B1B6A604A43F00403136298
:1015BC005E4B1B6A5D4A43F0010313620BE05B4B0D
:1015CC001B6A5A4A23F001031362584B1B6A574A91
:1015DC0023F0040313627B68DB68002B15D0FFF744
:1015EC0059FB38610AE0FFF755FB02463B69D31AF9
:1015FC0041F28832934201D90323B1E04B4B1B6A71
:10160C0003F00203002BEED014E0FFF743FB38612C
:10161C000AE0FFF73FFB02463B69D31A41F28832DE
:10162C00934201D903239BE0404B1B6A03F0020356
:10163C00002BEED1FB7D012B05D13C4BDB693B4AEA
:10164C0023F08053D3617B68DB69002B00F087802B
:10165C00364B5B6803F00C03082B61D07B68DB69AD
:10166C00022B46D1334B00221A60FFF713FB386173
:10167C0008E0FFF70FFB02463B69D31A022B01D996
:10168C0003236DE0294B1B6803F00073002BF0D192
:10169C007B681B6AB3F5803F08D1244B5B6823F44D
:1016AC0000327B689B68214913434B601F4B5B687E
:1016BC0023F474127B68196A7B685B6A0B431B49C1
:1016CC0013434B601B4B01221A60FFF7E3FA38619E
:1016DC0008E0FFF7DFFA02463B69D31A022B01D967
:1016EC0003233DE0114B1B6803F00073002BF0D07B
:1016FC0035E0104B00221A60FFF7CCFA386108E095
:10170C00FFF7C8FA02463B69D31A022B01D903230F
:10171C0026E0064B1B6803F00073002BF0D11EE093
:10172C007B68DB69012B07D1012319E00010024013
:10173C0000700040600042420B4B5B68FB60FB6832
:10174C0003F480327B681B6A9A4206D1FB6803F46F
:10175C0070127B685B6A9A4201D0012300E000237F
:10176C0018461837BD4680BD0010024080B584B0C5
:10177C0000AF786039607B68002B01D10123D0E089
:10178C006A4B1B6803F007033A689A4210D9674BFF
:10179C001B6823F0070265493B6813430B60634BDE
:1017AC001B6803F007033A689A4201D00123B8E0A2
:1017BC007B681B6803F00203002B20D07B681B683E
:1017CC0003F00403002B05D0594B5B68584A43F4D3
:1017DC00E06353607B681B6803F00803002B05D0A3
:1017EC00534B5B68524A43F460535360504B5B68F5
:1017FC0023F0F0027B689B684D4913434B607B6878
:10180C001B6803F00103002B40D07B685B68012B45
:10181C0007D1474B1B6803F40033002B15D1012370
:10182C007FE07B685B68022B07D1414B1B6803F0A0
:10183C000073002B09D1012373E03D4B1B6803F0AF
:10184C000203002B01D101236BE0394B5B6823F0C1
:10185C0003027B685B68364913434B60FFF71AFA47
:10186C00F8600AE0FFF716FA0246FB68D31A41F259
:10187C008832934201D9032353E02D4B5B6803F06C
:10188C000C027B685B689B009A42EBD1274B1B6870
:10189C0003F007033A689A4210D2244B1B6823F0DA
:1018AC00070222493B6813430B60204B1B6803F073
:1018BC0007033A689A4201D0012332E07B681B6827
:1018CC0003F00403002B08D0194B5B6823F4E0628F
:1018DC007B68DB68164913434B607B681B6803F01D
:1018EC000803002B09D0124B5B6823F460527B6811
:1018FC001B69DB000E4913434B6000F021F80246D4
:10190C000B4B5B681B0903F00F030A49CB5C22FAF3
:10191C0003F3094A1360094B1B681846FFF778F963
:10192C00002318461037BD4680BD00BF0020024082
:10193C00001002407022000810000020140000204B
:10194C0080B487B000AF0023FB600023BB60002392
:10195C007B6100237B6000233B611E4B5B68FB605B
:10196C00FB6803F00C03042B02D0082B03D027E0F8
:10197C00194B3B6127E0FB689B0C03F00F03174AE4
:10198C00D35C7B60FB6803F48033002B10D0114BCD
:10199C005B685B0C03F00103114AD35CBB607B6892
:1019AC000D4A03FB02F2BB68B2FBF3F37B6104E06C
:1019BC007B680C4A02FB03F37B617B693B6102E0B1
:1019CC00054B3B6100BF3B6918461C37BD4680BCCC
:1019DC00704700BF0010024000127A0080220008FD
:1019EC009022000800093D0080B485B000AF7860FB
:1019FC000A4B1B680A4AA2FB03235B0A7A6802FBA8
:101A0C0003F3FB6000BFFB685A1EFA60002BF9D190
:101A1C0000BF00BF1437BD4680BC704710000020CB
:101A2C00D34D621080B582B000AF78607B68002B1C
:101A3C0001D1012341E07B6893F83D30DBB2002BF0
:101A4C0006D17B68002283F83C207868FFF748F8C1
:101A5C007B68022283F83D207B681A687B6804331C
:101A6C001946104600F06EFA7B68012283F8462076
:101A7C007B68012283F83E207B68012283F83F209B
:101A8C007B68012283F840207B68012283F8412087
:101A9C007B68012283F842207B68012283F8432073
:101AAC007B68012283F844207B68012283F845205F
:101ABC007B68012283F83D20002318460837BD4679
:101ACC0080BD000080B485B000AF78607B6893F86F
:101ADC003D30DBB2012B01D0012335E07B680222C3
:101AEC0083F83D207B681B68DA687B681B6842F0D2
:101AFC000102DA607B681B68164A934209D07B6846
:101B0C001B68B3F1804F04D07B681B68124A934268
:101B1C0011D17B681B689B6803F00703FB60FB68B3
:101B2C00062B10D07B681B681A687B681B6842F018
:101B3C0001021A6007E07B681B681A687B681B68E7
:101B4C0042F001021A60002318461437BD4680BCCF
:101B5C00704700BF002C01400004004080B582B0EB
:101B6C0000AF78607B681B681B6903F00203022BD3
:101B7C0022D17B681B68DB6803F00203022B1BD1AC
:101B8C007B681B686FF002021A617B6801221A776E
:101B9C007B681B689B6903F00303002B03D07868F8
:101BAC0000F0B4F905E0786800F0A7F9786800F067
:101BBC00B6F97B6800221A777B681B681B6903F0F7
:101BCC000403042B22D17B681B68DB6803F004033D
:101BDC00042B1BD17B681B686FF004021A617B68B5
:101BEC0002221A777B681B689B6903F44073002BF5
:101BFC0003D0786800F08AF905E0786800F07DF988
:101C0C00786800F08CF97B6800221A777B681B6877
:101C1C001B6903F00803082B22D17B681B68DB6867
:101C2C0003F00803082B1BD17B681B686FF00802BC
:101C3C001A617B6804221A777B681B68DB6903F0E6
:101C4C000303002B03D0786800F060F905E0786896
:101C5C0000F053F9786800F062F97B6800221A777B
:101C6C007B681B681B6903F01003102B22D17B6867
:101C7C001B68DB6803F01003102B1BD17B681B68FF
:101C8C006FF010021A617B6808221A777B681B6858
:101C9C00DB6903F44073002B03D0786800F036F94D
:101CAC0005E0786800F029F9786800F038F97B686D
:101CBC0000221A777B681B681B6903F00103012B58
:101CCC000ED17B681B68DB6803F00103012B07D185
:101CDC007B681B686FF001021A617868FEF708FEDA
:101CEC007B681B681B6903F08003802B0ED17B681B
:101CFC001B68DB6803F08003802B07D17B681B68B3
:101D0C006FF080021A61786800F06BFA7B681B68D0
:101D1C001B6903F04003402B0ED17B681B68DB680A
:101D2C0003F04003402B07D17B681B686FF0400227
:101D3C001A61786800F0FCF87B681B681B6903F07B
:101D4C002003202B0ED17B681B68DB6803F020037B
:101D5C00202B07D17B681B686FF020021A61786812
:101D6C0000F036FA00BF0837BD4680BD80B584B0A0
:101D7C0000AF786039600023FB737B6893F83C30CC
:101D8C00012B01D10223B4E07B68012283F83C20B3
:101D9C007B68022283F83D207B681B689B68BB60D4
:101DAC00BB6823F07703BB60BB6823F47F43BB6045
:101DBC007B681B68BA689A603B681B68B3F5005F68
:101DCC003ED0B3F5005F00F28780B3F5805F00F082
:101DDC008680B3F5805F7FD8702B1AD0702B7BD8A0
:101DEC00602B50D0602B77D8502B3CD0502B73D815
:101DFC00402B58D0402B6FD8302B64D0302B6BD865
:101E0C00202B60D0202B67D8002B5CD0102B5AD005
:101E1C0062E07B6818683B6899683B685A683B6865
:101E2C00DB6800F05EF97B681B689B68BB60BB6875
:101E3C0043F07703BB607B681B68BA689A604FE01D
:101E4C007B6818683B6899683B685A683B68DB6834
:101E5C0000F047F97B681B689A687B681B6842F442
:101E6C0080429A603CE07B6818683B6859683B6824
:101E7C00DB681A4600F0BEF87B681B6850211846D8
:101E8C0000F015F92CE07B6818683B6859683B68D2
:101E9C00DB681A4600F0DCF87B681B68602118468A
:101EAC0000F005F91CE07B6818683B6859683B68D2
:101EBC00DB681A4600F09EF87B681B6840211846C8
:101ECC0000F0F5F80CE07B681A683B681B68194653
:101EDC00104600F0ECF803E00123FB7300E000BFB8
:101EEC007B68012283F83D207B68002283F83C202C
:101EFC00FB7B18461037BD4680BD80B483B000AF65
:101F0C00786000BF0C37BD4680BC704780B483B08E
:101F1C0000AF786000BF0C37BD4680BC704780B402
:101F2C0083B000AF786000BF0C37BD4680BC7047F3
:101F3C0080B483B000AF786000BF0C37BD4680BC66
:101F4C007047000080B485B000AF786039607B6862
:101F5C001B68FB607B68254A934207D07B68B3F112
:101F6C00804F03D07B68224A934208D1FB6823F050
:101F7C007003FB603B685B68FA681343FB607B682B
:101F8C001A4A934207D07B68B3F1804F03D07B6829
:101F9C00174A934208D1FB6823F44073FB603B68FB
:101FAC00DB68FA681343FB60FB6823F080023B6834
:101FBC005B691343FB607B68FA681A603B689A683C
:101FCC007B68DA623B681A687B689A627B68074AAE
:101FDC00934203D13B681A697B681A637B680122C0
:101FEC005A6100BF1437BD4680BC7047002C0140BD
:101FFC000004004080B487B000AFF860B9607A602C
:10200C00FB681B6A7B61FB681B6A23F00102FB689F
:10201C001A62FB689B693B613B6923F0F0033B61EF
:10202C007B681B013A6913433B617B6923F00A030C
:10203C007B617A69BB6813437B61FB683A699A617F
:10204C00FB687A691A6200BF1C37BD4680BC7047BA
:10205C0080B487B000AFF860B9607A60FB681B6A27
:10206C007B61FB681B6A23F01002FB681A62FB6839
:10207C009B693B613B6923F470433B617B681B03A9
:10208C003A6913433B617B6923F0A0037B61BB6816
:10209C001B017A6913437B61FB683A699A61FB689F
:1020AC007A691A6200BF1C37BD4680BC704780B489
:1020BC0085B000AF786039607B689B68FB60FB681B
:1020CC0023F07003FB603A68FB68134343F007038B
:1020DC00FB607B68FA689A6000BF1437BD4680BC11
:1020EC00704780B487B000AFF860B9607A603B602D
:1020FC00FB689B687B617B6923F47F437B613B6856
:10210C001A027B681A43BB6813437A6913437B61D9
:10211C00FB687A699A6000BF1C37BD4680BC70476B
:10212C0080B485B000AF786039607B6893F83C3040
:10213C00012B01D1022341E07B68012283F83C2072
:10214C007B68022283F83D207B681B685B68FB6020
:10215C007B681B689B68BB60FB6823F07003FB60AB
:10216C003B681B68FA681343FB607B681B68FA6862
:10217C005A607B681B68144A934209D07B681B68C1
:10218C00B3F1804F04D07B681B68104A93420CD18A
:10219C00BB6823F08003BB603B685B68BA68134381
:1021AC00BB607B681B68BA689A607B68012283F805
:1021BC003D207B68002283F83C200023184614370E
:1021CC00BD4680BC704700BF002C0140000400409D
:1021DC0080B483B000AF786000BF0C37BD4680BCC4
:1021EC00704780B483B000AF786000BF0C37BD4639
:1021FC0080BC704770B500260C4D0D4C641BA410B0
:10220C00A64209D100F022F800260A4D0A4C641BA4
:10221C00A410A64205D170BD55F8043B9847013671
:10222C00EEE755F8043B98470136F2E79422000894
:10223C0094220008942200089822000803460244C5
:10224C00934200D1704703F8011BF9E7F8B500BFC2
:10225C00F8BC08BC9E467047F8B500BFF8BC08BC7B
:04226C009E467047D3
:102270000000000000000000010203040607080936
:1022800002030405060708090A0B0C0D0E0F1010B7
:042290000102000047
:04229400310100080C
:042298000D0100082C
:10229C000100000002000000030000000400000028
:0C22AC000024F4001000000001000000FD
:0400000508000BA53F
:00000001FF
