:020000040800F2
:1000000000280020ED1100087D1100088311000870
:10001000891100088F1100089511000800000000E8
:100020000000000000000000000000009B1100081C
:10003000A711000800000000B3110008BF1100085C
:100040003512000835120008351200083512000874
:100050003512000835120008351200083512000864
:100060003512000835120008351200083512000854
:100070003512000835120008351200083512000844
:100080003512000835120008351200083512000834
:100090003512000835120008351200083512000824
:1000A0003512000835120008351200083512000814
:1000B000CD110008351200080000000035120008BC
:1000C0003512000800000000000000003512000892
:1000D0000000000035120008351200080000000082
:1000E0003512000835120008351200080000000023
:1000F0000000000000000000000000000000000000
:0C01000000000000000000005FF808F1A3
:10010C0010B5054C237833B9044B13B10448AFF345
:10011C0000800123237010BD44000020000000006B
:10012C005828000808B5034B1BB103490348AFF32B
:10013C00008008BD0000000048000020582800087E
:10014C0080B500AF00220121114801F05BFB0022B9
:10015C0002210F4801F056FB002204210C4801F04B
:10016C0051FB002208210A4801F04CFB002210210F
:10017C00074801F047FB00222021054801F042FB13
:10018C0001224021024801F03DFB00BF80BD00BFB1
:10019C00000C014080B500AF01220121114801F093
:1001AC0031FB002202210F4801F02CFB002204211C
:1001BC000C4801F027FB012208210A4801F022FB20
:1001CC0001221021074801F01DFB012220210548C6
:1001DC0001F018FB01224021024801F013FB00BF83
:1001EC0080BD00BF000C014080B500AF0022012192
:1001FC00114801F007FB002202210F4801F002FB1D
:10020C00012204210C4801F0FDFA002208210A48C1
:10021C0001F0F8FA00221021074801F0F3FA01224C
:10022C002021054801F0EEFA00224021024801F09D
:10023C00E9FA00BF80BD00BF000C014080B500AFE3
:10024C0000220121114801F0DDFA002202210F48A1
:10025C0001F0D8FA002204210C4801F0D3FA002254
:10026C0008210A4801F0CEFA01221021074801F0BA
:10027C00C9FA01222021054801F0C4FA00224021CC
:10028C00024801F0BFFA00BF80BD00BF000C014066
:10029C0080B500AF01220121114801F0B3FA002210
:1002AC0002210F4801F0AEFA002204210C4801F0A3
:1002BC00A9FA012208210A4801F0A4FA012210210E
:1002CC00074801F09FFA00222021054801F09AFA14
:1002DC0000224021024801F095FA00BF80BD00BF0A
:1002EC00000C014080B500AF00220121114801F043
:1002FC0089FA012202210F4801F084FA002204211C
:10030C000C4801F07FFA002208210A4801F07AFA21
:10031C0001221021074801F075FA0022202105481E
:10032C0001F070FA00224021024801F06BFA00BF84
:10033C0080BD00BF000C014080B500AF0022012140
:10034C00114801F05FFA012202210F4801F05AFA1C
:10035C00002204210C4801F055FA002208210A4819
:10036C0001F050FA00221021074801F04BFA00224C
:10037C002021054801F046FA00224021024801F0F4
:10038C0041FA00BF80BD00BF000C014080B500AF3A
:10039C0000220121114801F035FA002202210F48F8
:1003AC0001F030FA002204210C4801F02BFA012252
:1003BC0008210A4801F026FA01221021074801F011
:1003CC0021FA01222021054801F01CFA01224021CA
:1003DC00024801F017FA00BF80BD00BF000C0140BD
:1003EC0080B500AF00220121114801F00BFA002268
:1003FC0002210F4801F006FA002204210C4801F0FA
:10040C0001FA002208210A4801F0FCF9002210210F
:10041C00074801F0F7F900222021054801F0F2F914
:10042C0000224021024801F0EDF900BF80BD00BF61
:10043C00000C014080B500AF00220121114801F0F1
:10044C00E1F9002202210F4801F0DCF9002204211D
:10045C000C4801F0D7F9002208210A4801F0D2F922
:10046C0001221021074801F0CDF900222021054876
:10047C0001F0C8F900224021024801F0C3F900BF85
:10048C0080BD00BF000C014080B582B000AF786029
:10049C007B68092B34D801A252F823F0D104000850
:1004AC00D7040008DD040008E3040008E904000890
:1004BC00EF040008F5040008FB040008010500081F
:1004CC0007050008FFF73CFE1BE0FFF763FE18E092
:1004DC00FFF78AFE15E0FFF7B1FE12E0FFF7D8FE3A
:1004EC000FE0FFF7FFFE0CE0FFF726FF09E0FFF738
:1004FC004DFF06E0FFF774FF03E0FFF79BFF00E002
:10050C0000BF00BF0837BD4680BD00BF80B582B0BC
:10051C0000AF78607B68032B22D801A252F823F03D
:10052C003D0500084905000855050008610500084F
:10053C000E4B1B681846FFF7A7FF12E00B4B5B68CE
:10054C001846FFF7A1FF0CE0084B9B681846FFF715
:10055C009BFF06E0054BDB681846FFF795FF00E0B4
:10056C0000BF00BF0837BD4680BD00BF00000020A3
:10057C0080B483B000AF786039603B68184A82FB66
:10058C0003129210DB17D31A164A13603968144BF6
:10059C0083FB01239A10CB17D21A13469B001344EA
:1005AC005B00CA1A0F4B5A607B680D4A82FB031220
:1005BC009210DB17D31A0B4A93607968084B83FBB4
:1005CC0001239A10CB17D21A13469B0013445B00DD
:1005DC00CA1A044BDA6000BF0C37BD4680BC7047AA
:1005EC00676666660000002080B483B000AF786058
:1005FC00134B5A88124B1A80114B9A88104B5A8005
:10060C000F4BDA880E4B9A800D4B1A890C4BDA8003
:10061C000B4B5A890A4B1A81094B9A89084B5A8100
:10062C00074BDA89064B9A81064A7B6832F813200D
:10063C00034BDA8100BF0C37BD4680BC704700BF4E
:10064C00100000202000002080B582B000AF786040
:10065C007B68072B00F20A8201A252F823F000BF3C
:10066C008D06000809070008850700080108000826
:10067C007D080008F908000881090008FD09000838
:10068C0000220421B84801F0BDF801220821B64827
:10069C0001F0B8F801224FF48061B34801F0B2F8D0
:1006AC0001224FF40061B04801F0ACF801224FF484
:1006BC008051AD4801F0A6F801224FF40051AA4830
:1006CC0001F0A0F801224FF48041A74801F09AF8FC
:1006DC0001224FF40041A44801F094F8A34BDB68CD
:1006EC00A24A23F47F43D360A04BDB68A04A128854
:1006FC00120211469D4A0B43D360B8E1012204213A
:10070C00994801F07FF800220821974801F07AF807
:10071C0001224FF48061944801F074F801224FF4E7
:10072C000061914801F06EF801224FF480518E481F
:10073C0001F068F801224FF400518B4801F062F887
:10074C0001224FF48041884801F05CF801224FF4FB
:10075C000041854801F056F8844BDB68834A23F44A
:10076C007F43D360814BDB68814A52881202114669
:10077C007E4A0B43D3607AE1012204217A4801F0CE
:10078C0041F801220821784801F03CF800224FF48E
:10079C008061754801F036F801224FF4006172480F
:1007AC0001F030F801224FF480516F4801F02AF823
:1007BC0001224FF400516C4801F024F801224FF44F
:1007CC008041694801F01EF801224FF4004166484F
:1007DC0001F018F8654BDB68644A23F47F43D3605F
:1007EC00624BDB68624A9288120211465F4A0B43E5
:1007FC00D3603CE1012204215B4801F003F80122A3
:10080C000821594800F0FEFF01224FF48061564840
:10081C0000F0F8FF00224FF40061534800F0F2FFA3
:10082C0001224FF48051504800F0ECFF01224FF4AC
:10083C0000514D4800F0E6FF01224FF480414A4838
:10084C0000F0E0FF01224FF40041474800F0DAFFCE
:10085C00464BDB68454A23F47F43D360434BDB684C
:10086C00434AD28812021146404A0B43D360FEE041
:10087C00012204213C4800F0C5FF012208213A481E
:10088C0000F0C0FF01224FF48061374800F0BAFF3E
:10089C0001224FF40061344800F0B4FF00224FF401
:1008AC008051314800F0AEFF01224FF400512E4828
:1008BC0000F0A8FF01224FF480412B4800F0A2FF6A
:1008CC0001224FF40041284800F09CFF274BDB68C5
:1008DC00264A23F47F43D360244BDB68244A1289D5
:1008EC0012021146214A0B43D360C0E001220421BD
:1008FC001D4800F087FF012208211B4800F082FFF1
:10090C0001224FF48061184800F07CFF01224FF463
:10091C000061154800F076FF01224FF48051124817
:10092C0000F070FF00224FF400510F4800F06AFFF6
:10093C0001224FF480410C4800F064FF01224FF477
:10094C000041094800F05EFF084BDB68074A23F4BE
:10095C007F43D360054BDB68054A5289120211466E
:10096C00024A0B43D36082E000080140000C0140B6
:10097C0010000020012204213F4800F043FF012217
:10098C0008213D4800F03EFF01224FF480613A48B7
:10099C0000F038FF01224FF40061374800F032FFBD
:1009AC0001224FF48051344800F02CFF01224FF407
:1009BC000051314800F026FF00224FF480412E48B0
:1009CC0000F020FF01224FF400412B4800F01AFFE9
:1009DC002A4BDB68294A23F47F43D360274BDB681F
:1009EC00274A928912021146244A0B43D3603EE0F7
:1009FC0001220421204800F005FF012208211E4895
:100A0C0000F000FF01224FF480611B4800F0FAFE59
:100A1C0001224FF40061184800F0F4FE01224FF45B
:100A2C008051154800F0EEFE01224FF4005112489F
:100A3C0000F0E8FE01224FF480410F4800F0E2FE86
:100A4C0000224FF400410C4800F0DCFE0B4BDB683D
:100A5C000A4A23F47F43D360084BDB68084AD289E7
:100A6C0012021146054A0B43D36000E000BF00BFE1
:100A7C000837BD4680BD00BF00080140000C014096
:100A8C001000002080B584B000AF00F0CFFB00F068
:100A9C0075F900F0FBF900F0ADF9B04801F012FB6C
:100AAC004FF47A7000F0CAFA4FF47A7000F054FAEE
:100ABC004FF4FA7000F0DEFA642000F0F7FA0F231E
:100ACC00FB601E23BB6032237B6000233B60A44B86
:100ADC001B68012B23D17B6801337B607B683B2B2C
:100AEC0004DD00237B60BB680133BB60BB683B2B20
:100AFC0004DD0023BB60FB680133FB60FB68172B34
:100B0C0001DD0023FB60F968B868FFF731FD202197
:100B1C00944800F08FFE4FF47A7000F08FFA3B6827
:100B2C00042B00F2C48001A252F823F04D0B0008F4
:100B3C00970B0008E10B00082B0C0008730C000845
:100B4C00894B1B68012B40F0C9800022402185484D
:100B5C0000F058FE0020FFF7D9FC012280218148CB
:100B6C0000F050FE01224FF480717E4800F04AFEE6
:100B7C0001224FF400717B4800F044FE01233B60DE
:100B8C004FF47A7000F0E8F9A8E0774B1B68012B62
:100B9C0040F0A68001224021724800F033FE002272
:100BAC008021704800F02EFE0120FFF7AFFC0122DF
:100BBC004FF480716B4800F025FE01224FF4007158
:100BCC00684800F01FFE02233B604FF47A7000F07F
:100BDC00C3F985E0644B1B68012B40F08380012234
:100BEC004021604800F00EFE012280215D4800F09B
:100BFC0009FE00224FF480715A4800F003FE0220D7
:100C0C00FFF784FC01224FF40071564800F0FAFD06
:100C1C0003233B604FF47A7000F09EF962E0524B74
:100C2C001B68012B60D1012240214E4800F0EAFDE7
:100C3C00012280214B4800F0E5FD01224FF4807128
:100C4C00484800F0DFFD00224FF40071454800F0E9
:100C5C00D9FD0320FFF75AFC04233B604FF47A7054
:100C6C0000F07AF940E0404B1B68012B3ED100228A
:100C7C0040213C4800F0C6FD01228021394800F09B
:100C8C00C1FD01224FF48071364800F0BBFD0122FA
:100C9C004FF40071334800F0B5FD0020FFF736FC2F
:100CAC0001233B604FF47A7000F056F91EE00022ED
:100CBC0040212C4800F0A6FD01228021294800F09B
:100CCC00A1FD01224FF48071264800F09BFD01220A
:100CDC004FF40071234800F095FD08E000BF06E0DA
:100CEC0000BF04E000BF02E000BF00E000BF1F4BEC
:100CFC001B68012B07D110211A4800F09BFD4FF403
:100D0C00FA7000F0B7F91A4B1B68012B7FF4DFAEB9
:100D1C00184B1B680133174A1360164B1B68072BC3
:100D2C0013DD144B00221A60134B1B680133124A5B
:100D3C001360114B1B68082B02DD0F4B00221A604D
:100D4C000D4B1B681846FFF74FFC0A4B1B681846E7
:100D5C00FFF77AFC322000F0A9F9B8E66800002011
:100D6C00C400002000080140B4000020BC0000209A
:100D7C0034000020600000206400002080B590B09A
:100D8C0000AF07F1180328220021184601F056FD88
:100D9C003B1D00221A605A609A60DA601A610223C5
:100DAC00BB610123BB621023FB6200237B6307F151
:100DBC001803184600F058FD0346002B01D000F034
:100DCC00C5F80F237B600023BB600023FB6000236E
:100DDC003B6100237B613B1D0021184600F0C6FFE0
:100DEC000346002B01D000F0B1F800BF4037BD46E0
:100DFC0080BD000080B586B000AF07F1080300226B
:100E0C001A605A609A60DA603B4600221A605A6097
:100E1C001D4B4FF080421A601B4B41F63F725A60DB
:100E2C00194B00229A60184B0922DA60164B0022EB
:100E3C001A61154B00229A61134801F0F3F803462E
:100E4C00002B01D000F082F84FF48053BB6007F107
:100E5C00080319460C4801F089FA0346002B01D00F
:100E6C0000F074F800233B6000237B603B4619467E
:100E7C00054801F055FC0346002B01D000F066F844
:100E8C0000BF1837BD4680BD6800002080B586B015
:100E9C0000AF07F1080300221A605A609A60DA600A
:100EAC00224B9B69214A43F0040393611F4B9B69BE
:100EBC0003F004037B607B681C4B9B691B4A43F06B
:100ECC0008039361194B9B6903F008033B603B6873
:100EDC0000224FF6FC71164800F094FC00224FF6ED
:100EEC007F71144800F08EFC4FF6FC73BB6001233D
:100EFC00FB6000233B6102237B6107F10803194669
:100F0C000B4800F003FB4FF67F73BB600123FB60C3
:100F1C0000233B6102237B6107F108031946054856
:100F2C0000F0F4FA00BF1837BD4680BD0010024037
:100F3C0000080140000C014080B582B000AF786021
:100F4C0000F026F800BF0837BD4680BD80B400AF66
:100F5C0072B600BFFEE7000080B483B000AF7860CB
:100F6C007B68084A82FB03129210DB17D31A064ADD
:100F7C001360064B00221A6000BF0C37BD4680BCC4
:100F8C00704700BF67666666B0000020B4000020A2
:100F9C0080B400AF214B1B68002B0BDD1F4B1B6873
:100FAC00013B1E4A13601D4B1B68002B02DC1C4BC3
:100FBC0001221A601B4B1B68002B0BDD194B1B68A5
:100FCC00013B184A1360174B1B68002B02DC164BB5
:100FDC0001221A60154B1B68002B0BDD134B1B6891
:100FEC00013B124A1360114B1B68002B02DC104BA7
:100FFC0001221A600F4B1B68002B0BDD0D4B1B687D
:10100C00013B0C4A13600B4B1B68002B02DC0A4B98
:10101C0001221A6000BFBD4680BC7047C000002092
:10102C00C4000020B0000020B4000020B800002054
:10103C00BC000020C80000203400002080B483B025
:10104C0000AF78607B68084A82FB03129210DB17B2
:10105C00D31A064A1360064B00221A6000BF0C37E5
:10106C00BD4680BC704700BF67666666C000002046
:10107C00C400002080B483B000AF78607B68084A5D
:10108C0082FB03129210DB17D31A064A1360064B2D
:10109C0000221A6000BF0C37BD4680BC704700BFF1
:1010AC0067666666B8000020BC00002080B483B080
:1010BC0000AF78607B68084A82FB03129210DB1742
:1010CC00D31A064A1360064B00221A6000BF0C3775
:1010DC00BD4680BC704700BF67666666C8000020CE
:1010EC003400002080B483B000AF0E4B9B690D4AD6
:1010FC0043F0010393610B4B9B6903F001037B608D
:10110C007B68084BDB69074A43F08053D361054B7E
:10111C00DB6903F080533B603B6800BF0C37BD4676
:10112C0080BC70470010024080B584B000AF78607E
:10113C007B681B68B3F1804F13D10C4BDB690B4AF6
:10114C0043F00103D361094BDB6903F00103FB603E
:10115C00FB68002200211C2000F0A1F91C2000F0EB
:10116C00BAF900BF1037BD4680BD00BF0010024069
:10117C0080B400AFFEE780B400AFFEE780B400AFF0
:10118C00FEE780B400AFFEE780B400AFFEE780B4AA
:10119C0000AF00BFBD4680BC704780B400AF00BF3D
:1011AC00BD4680BC704780B400AF00BFBD4680BC5C
:1011BC00704780B500AF00F07FF800BF80BD000025
:1011CC0080B500AF024800F0C9FF00BF80BD00BF72
:1011DC006800002080B400AF00BFBD4680BC7047E3
:1011EC00FFF7F8FF0B480C490C4A002302E0D458D7
:1011FC00C4500433C4188C42F9D3094A094C002357
:10120C0001E013600432A242FBD301F0F3FAFFF7C2
:10121C0039FC704700000020440000209C28000886
:10122C0044000020D0000020FEE7000080B500AF95
:10123C00084B1B68074A43F010031360032000F0AF
:10124C0023F90F2000F008F8FFF74CFF0023184695
:10125C0080BD00BF0020024080B582B000AF786036
:10126C00124B1A68124B1B7819464FF47A73B3FB66
:10127C00F1F3B2FBF3F3184600F03BF90346002BF5
:10128C0001D001230EE07B680F2B0AD8002279686D
:10129C004FF0FF3000F003F9064A7B68136000231F
:1012AC0000E0012318460837BD4680BD38000020F9
:1012BC00400000203C00002080B400AF054B1B78A0
:1012CC001A46054B1B681344034A136000BFBD4606
:1012DC0080BC704740000020CC00002080B400AFE0
:1012EC00024B1B681846BD4680BC7047CC000020E2
:1012FC0080B485B000AF78607B6803F00703FB60B7
:10130C000C4BDB68BB60BA684FF6FF031340BB6045
:10131C00FB681A02BB68134343F0BF6343F400330A
:10132C00BB60044ABB68D36000BF1437BD4680BCA9
:10133C00704700BF00ED00E080B400AF044BDB68E9
:10134C001B0A03F007031846BD4680BC704700BF5C
:10135C0000ED00E080B483B000AF0346FB7197F959
:10136C000730002B0BDBFB7903F01F02064997F9C2
:10137C0007305B09012000FA02F241F8232000BF7C
:10138C000C37BD4680BC704700E100E080B483B0F0
:10139C0000AF03463960FB7197F90730002B0ADB6D
:1013AC003B68DAB20C4997F907301201D2B20B4400
:1013BC0083F800230AE03B68DAB20849FB7903F0B2
:1013CC000F03043B1201D2B20B441A7600BF0C3748
:1013DC00BD4680BC704700BF00E100E000ED00E0BE
:1013EC0080B489B000AFF860B9607A60FB6803F034
:1013FC000703FB61FB69C3F10703042B28BF04231C
:10140C00BB61FB690433062B02D9FB69033B00E08B
:10141C0000237B614FF0FF32BB6902FA03F3DA431E
:10142C00BB681A407B699A404FF0FF317B6901FA27
:10143C0003F3D9437B680B40134318462437BD464E
:10144C0080BC704780B582B000AF78607B68013B90
:10145C00B3F1807F01D301230FE00A4A7B68013B83
:10146C0053600F214FF0FF30FFF790FF054B002228
:10147C009A60044B07221A60002318460837BD46B1
:10148C0080BD00BF10E000E080B582B000AF786096
:10149C007868FFF72DFF00BF0837BD4680BD80B5CB
:1014AC0086B000AF0346B9607A60FB7300237B61A2
:1014BC00FFF742FF78617A68B9687869FFF790FFA7
:1014CC00024697F90F3011461846FFF75FFF00BF31
:1014DC001837BD4680BD80B582B000AF0346FB71A6
:1014EC0097F907301846FFF735FF00BF0837BD46A0
:1014FC0080BD80B582B000AF78607868FFF7A2FF3E
:10150C00034618460837BD4680BD000080B48BB03A
:10151C0000AF7860396000237B6200233B6261E19D
:10152C0001227B6A02FA03F3FB613B681B68FA69D0
:10153C001340BB61BA69FB699A4240F050813B6829
:10154C005B68974A93425ED0954A934275D8954A08
:10155C00934258D0934A93426FD8934A934252D0B5
:10156C00914A934269D8914A93424CD08F4A934204
:10157C0063D88F4A934246D08D4A93425DD8122B42
:10158C002AD8122B59D801A252F823F013160008AE
:10159C00ED150008FF150008411600084716000855
:1015AC00471600084716000847160008471600089B
:1015BC00471600084716000847160008471600088B
:1015CC00471600084716000847160008471600087B
:1015DC00F515000809160008764A934213D02CE042
:1015EC003B68DB683B6229E03B68DB6804333B62A9
:1015FC0024E03B68DB6808333B621FE03B68DB6838
:10160C000C333B621AE03B689B68002B02D104232D
:10161C003B6213E03B689B68012B05D108233B62BE
:10162C007B68FA691A6109E008233B627B68FA69F6
:10163C005A6103E000233B6200E000BFBB69FF2B53
:10164C0001D87B6801E07B6804337B61BB69FF2BAD
:10165C0002D87B6A9B0002E07B6A083B9B003B61E3
:10166C007B691A680F213B6901FA03F3DB431A40CB
:10167C00396A3B6901FA03F31A437B691A603B68C8
:10168C005B6803F08053002B00F0A9804A4B9B69E8
:10169C00494A43F001039361474B9B6903F00103F3
:1016AC00BB60BB68454A7B6A9B08023352F8233007
:1016BC00FB607B6A03F003039B000F2202FA03F327
:1016CC00DB43FA681340FB607B683D4A93420DD0C4
:1016DC007B683C4A934207D07B683B4A934201D1DA
:1016EC00022304E0032302E0012300E000237A6AD2
:1016FC0002F0030292009340FA681343FB602F49F7
:10170C007B6A9B080233FA6841F823203B685B68CC
:10171C0003F48013002B06D02C4B9A682B49BB6921
:10172C0013438B6006E0294B9A68BB69DB4327495E
:10173C0013408B603B685B6803F40013002B06D0EE
:10174C00224BDA682149BB691343CB6006E01F4B7F
:10175C00DA68BB69DB431D491340CB603B685B68AF
:10176C0003F40033002B06D0184B5A681749BB6999
:10177C0013434B6006E0154B5A68BB69DB431349B6
:10178C0013404B603B685B6803F48033002B1FD025
:10179C000E4B1A680D49BB6913430B601FE000BF69
:1017AC000000321000003110000022100000211047
:1017BC000000121000001110001002400000014047
:1017CC0000080140000C01400010014000040140E1
:1017DC000B4B1A68BB69DB43094913400B607B6AEE
:1017EC0001337B623B681A687B6A22FA03F3002B95
:1017FC007FF496AE00BF00BF2C37BD4680BC70474F
:10180C000004014080B483B000AF78600B467B804D
:10181C0013467B707B78002B03D07A887B681A6127
:10182C0003E07B881A047B681A6100BF0C37BD4645
:10183C0080BC704780B485B000AF78600B467B806D
:10184C007B68DB68FB607A88FB6813401A04FB68D2
:10185C00D9437B880B401A437B681A6100BF14374D
:10186C00BD4680BC7047000080B586B000AF786084
:10187C007B68002B01D1012372E27B681B6803F0AB
:10188C000103002B00F08780924B5B6803F00C0384
:10189C00042B0CD08F4B5B6803F00C03082B12D17C
:1018AC008C4B5B6803F48033B3F5803F0BD1894BD1
:1018BC001B6803F40033002B6CD07B685B68002B37
:1018CC0068D101234CE27B685B68B3F5803F06D19D
:1018DC00804B1B687F4A43F4803313602EE07B6897
:1018EC005B68002B0CD17B4B1B687A4A23F480334A
:1018FC001360784B1B68774A23F4802313601DE038
:10190C007B685B68B3F5A02F0CD1724B1B68714AD6
:10191C0043F4802313606F4B1B686E4A43F480338F
:10192C0013600BE06B4B1B686A4A23F48033136023
:10193C00684B1B68674A23F4802313607B685B68E1
:10194C00002B13D0FFF7CAFC386108E0FFF7C6FC88
:10195C0002463B69D31A642B01D9032300E25D4B89
:10196C001B6803F40033002BF0D014E0FFF7B6FC37
:10197C00386108E0FFF7B2FC02463B69D31A642BCE
:10198C0001D90323ECE1534B1B6803F40033002B08
:10199C00F0D100E000BF7B681B6803F00203002B52
:1019AC0063D04C4B5B6803F00C03002B0BD0494B02
:1019BC005B6803F00C03082B1CD1464B5B6803F4EB
:1019CC008033002B16D1434B1B6803F00203002B12
:1019DC0005D07B681B69012B01D00123C0E13D4B75
:1019EC001B6823F0F8027B685B69DB003949134301
:1019FC000B603AE07B681B69002B20D0364B012230
:101A0C001A60FFF76BFC386108E0FFF767FC0246D1
:101A1C003B69D31A022B01D90323A1E12D4B1B687F
:101A2C0003F00203002BF0D02A4B1B6823F0F802C2
:101A3C007B685B69DB00274913430B6015E0264B81
:101A4C0000221A60FFF74AFC386108E0FFF746FCF9
:101A5C0002463B69D31A022B01D9032380E11D4BAB
:101A6C001B6803F00203002BF0D17B681B6803F0AA
:101A7C000803002B3AD07B689B69002B19D0174BBD
:101A8C0001221A60FFF72AFC386108E0FFF726FCF8
:101A9C0002463B69D31A022B01D9032360E10D4B9B
:101AAC005B6A03F00203002BF0D0012000F09CFADB
:101ABC001CE00A4B00221A60FFF710FC38610FE0A3
:101ACC00FFF70CFC02463B69D31A022B08D90323FF
:101ADC0046E100BF00100240000042428004424236
:101AEC00924B5B6A03F00203002BE9D17B681B6805
:101AFC0003F00403002B00F0A6800023FB758B4B36
:101B0C00DB6903F08053002B0DD1884BDB69874ACE
:101B1C0043F08053D361854BDB6903F08053BB608A
:101B2C00BB680123FB75824B1B6803F48073002B8D
:101B3C0018D17F4B1B687E4A43F480731360FFF708
:101B4C00CDFB386108E0FFF7C9FB02463B69D31AAD
:101B5C00642B01D9032303E1754B1B6803F48073D9
:101B6C00002BF0D07B68DB68012B06D16F4B1B6A16
:101B7C006E4A43F0010313622DE07B68DB68002B97
:101B8C000CD16A4B1B6A694A23F001031362674B41
:101B9C001B6A664A23F0040313621CE07B68DB6853
:101BAC00052B0CD1614B1B6A604A43F00403136292
:101BBC005E4B1B6A5D4A43F0010313620BE05B4B07
:101BCC001B6A5A4A23F001031362584B1B6A574A8B
:101BDC0023F0040313627B68DB68002B15D0FFF73E
:101BEC007DFB38610AE0FFF779FB02463B69D31AAB
:101BFC0041F28832934201D90323B1E04B4B1B6A6B
:101C0C0003F00203002BEED014E0FFF767FB386102
:101C1C000AE0FFF763FB02463B69D31A41F28832B4
:101C2C00934201D903239BE0404B1B6A03F0020350
:101C3C00002BEED1FB7D012B05D13C4BDB693B4AE4
:101C4C0023F08053D3617B68DB69002B00F0878025
:101C5C00364B5B6803F00C03082B61D07B68DB69A7
:101C6C00022B46D1334B00221A60FFF737FB386149
:101C7C0008E0FFF733FB02463B69D31A022B01D96C
:101C8C0003236DE0294B1B6803F00073002BF0D18C
:101C9C007B681B6AB3F5803F08D1244B5B6823F447
:101CAC0000327B689B68214913434B601F4B5B6878
:101CBC0023F474127B68196A7B685B6A0B431B49BB
:101CCC0013434B601B4B01221A60FFF707FB386173
:101CDC0008E0FFF703FB02463B69D31A022B01D93C
:101CEC0003233DE0114B1B6803F00073002BF0D075
:101CFC0035E0104B00221A60FFF7F0FA386108E06B
:101D0C00FFF7ECFA02463B69D31A022B01D90323E5
:101D1C0026E0064B1B6803F00073002BF0D11EE08D
:101D2C007B68DB69012B07D1012319E0001002400D
:101D3C0000700040600042420B4B5B68FB60FB682C
:101D4C0003F480327B681B6A9A4206D1FB6803F469
:101D5C0070127B685B6A9A4201D0012300E0002379
:101D6C0018461837BD4680BD0010024080B584B0BF
:101D7C0000AF786039607B68002B01D10123D0E083
:101D8C006A4B1B6803F007033A689A4210D9674BF9
:101D9C001B6823F0070265493B6813430B60634BD8
:101DAC001B6803F007033A689A4201D00123B8E09C
:101DBC007B681B6803F00203002B20D07B681B6838
:101DCC0003F00403002B05D0594B5B68584A43F4CD
:101DDC00E06353607B681B6803F00803002B05D09D
:101DEC00534B5B68524A43F460535360504B5B68EF
:101DFC0023F0F0027B689B684D4913434B607B6872
:101E0C001B6803F00103002B40D07B685B68012B3F
:101E1C0007D1474B1B6803F40033002B15D101236A
:101E2C007FE07B685B68022B07D1414B1B6803F09A
:101E3C000073002B09D1012373E03D4B1B6803F0A9
:101E4C000203002B01D101236BE0394B5B6823F0BB
:101E5C0003027B685B68364913434B60FFF73EFA1D
:101E6C00F8600AE0FFF73AFA0246FB68D31A41F22F
:101E7C008832934201D9032353E02D4B5B6803F066
:101E8C000C027B685B689B009A42EBD1274B1B686A
:101E9C0003F007033A689A4210D2244B1B6823F0D4
:101EAC00070222493B6813430B60204B1B6803F06D
:101EBC0007033A689A4201D0012332E07B681B6821
:101ECC0003F00403002B08D0194B5B6823F4E06289
:101EDC007B68DB68164913434B607B681B6803F017
:101EEC000803002B09D0124B5B6823F460527B680B
:101EFC001B69DB000E4913434B6000F021F80246CE
:101F0C000B4B5B681B0903F00F030A49CB5C22FAED
:101F1C0003F3094A1360094B1B681846FFF79CF939
:101F2C00002318461037BD4680BD00BF002002407C
:101F3C000010024070280008380000203C000020EF
:101F4C0080B487B000AF0023FB600023BB6000238C
:101F5C007B6100237B6000233B611E4B5B68FB6055
:101F6C00FB6803F00C03042B02D0082B03D027E0F2
:101F7C00194B3B6127E0FB689B0C03F00F03174ADE
:101F8C00D35C7B60FB6803F48033002B10D0114BC7
:101F9C005B685B0C03F00103114AD35CBB607B688C
:101FAC000D4A03FB02F2BB68B2FBF3F37B6104E066
:101FBC007B680C4A02FB03F37B617B693B6102E0AB
:101FCC00054B3B6100BF3B6918461C37BD4680BCC6
:101FDC00704700BF0010024000127A0080280008F1
:101FEC009028000800093D0080B485B000AF7860EF
:101FFC000A4B1B680A4AA2FB03235B0A7A6802FBA2
:10200C0003F3FB6000BFFB685A1EFA60002BF9D18A
:10201C0000BF00BF1437BD4680BC7047380000209D
:10202C00D34D621080B582B000AF78607B68002B16
:10203C0001D1012341E07B6893F83D30DBB2002BEA
:10204C0006D17B68002283F83C207868FFF76CF897
:10205C007B68022283F83D207B681A687B68043316
:10206C001946104600F06EFA7B68012283F8462070
:10207C007B68012283F83E207B68012283F83F2095
:10208C007B68012283F840207B68012283F8412081
:10209C007B68012283F842207B68012283F843206D
:1020AC007B68012283F844207B68012283F8452059
:1020BC007B68012283F83D20002318460837BD4673
:1020CC0080BD000080B485B000AF78607B6893F869
:1020DC003D30DBB2012B01D0012335E07B680222BD
:1020EC0083F83D207B681B68DA687B681B6842F0CC
:1020FC000102DA607B681B68164A934209D07B6840
:10210C001B68B3F1804F04D07B681B68124A934262
:10211C0011D17B681B689B6803F00703FB60FB68AD
:10212C00062B10D07B681B681A687B681B6842F012
:10213C0001021A6007E07B681B681A687B681B68E1
:10214C0042F001021A60002318461437BD4680BCC9
:10215C00704700BF002C01400004004080B582B0E5
:10216C0000AF78607B681B681B6903F00203022BCD
:10217C0022D17B681B68DB6803F00203022B1BD1A6
:10218C007B681B686FF002021A617B6801221A7768
:10219C007B681B689B6903F00303002B03D07868F2
:1021AC0000F0B4F905E0786800F0A7F9786800F061
:1021BC00B6F97B6800221A777B681B681B6903F0F1
:1021CC000403042B22D17B681B68DB6803F0040337
:1021DC00042B1BD17B681B686FF004021A617B68AF
:1021EC0002221A777B681B689B6903F44073002BEF
:1021FC0003D0786800F08AF905E0786800F07DF982
:10220C00786800F08CF97B6800221A777B681B6871
:10221C001B6903F00803082B22D17B681B68DB6861
:10222C0003F00803082B1BD17B681B686FF00802B6
:10223C001A617B6804221A777B681B68DB6903F0E0
:10224C000303002B03D0786800F060F905E0786890
:10225C0000F053F9786800F062F97B6800221A7775
:10226C007B681B681B6903F01003102B22D17B6861
:10227C001B68DB6803F01003102B1BD17B681B68F9
:10228C006FF010021A617B6808221A777B681B6852
:10229C00DB6903F44073002B03D0786800F036F947
:1022AC0005E0786800F029F9786800F038F97B6867
:1022BC0000221A777B681B681B6903F00103012B52
:1022CC000ED17B681B68DB6803F00103012B07D17F
:1022DC007B681B686FF001021A617868FEF72CFEB0
:1022EC007B681B681B6903F08003802B0ED17B6815
:1022FC001B68DB6803F08003802B07D17B681B68AD
:10230C006FF080021A61786800F06BFA7B681B68CA
:10231C001B6903F04003402B0ED17B681B68DB6804
:10232C0003F04003402B07D17B681B686FF0400221
:10233C001A61786800F0FCF87B681B681B6903F075
:10234C002003202B0ED17B681B68DB6803F0200375
:10235C00202B07D17B681B686FF020021A6178680C
:10236C0000F036FA00BF0837BD4680BD80B584B09A
:10237C0000AF786039600023FB737B6893F83C30C6
:10238C00012B01D10223B4E07B68012283F83C20AD
:10239C007B68022283F83D207B681B689B68BB60CE
:1023AC00BB6823F07703BB60BB6823F47F43BB603F
:1023BC007B681B68BA689A603B681B68B3F5005F62
:1023CC003ED0B3F5005F00F28780B3F5805F00F07C
:1023DC008680B3F5805F7FD8702B1AD0702B7BD89A
:1023EC00602B50D0602B77D8502B3CD0502B73D80F
:1023FC00402B58D0402B6FD8302B64D0302B6BD85F
:10240C00202B60D0202B67D8002B5CD0102B5AD0FF
:10241C0062E07B6818683B6899683B685A683B685F
:10242C00DB6800F05EF97B681B689B68BB60BB686F
:10243C0043F07703BB607B681B68BA689A604FE017
:10244C007B6818683B6899683B685A683B68DB682E
:10245C0000F047F97B681B689A687B681B6842F43C
:10246C0080429A603CE07B6818683B6859683B681E
:10247C00DB681A4600F0BEF87B681B6850211846D2
:10248C0000F015F92CE07B6818683B6859683B68CC
:10249C00DB681A4600F0DCF87B681B686021184684
:1024AC0000F005F91CE07B6818683B6859683B68CC
:1024BC00DB681A4600F09EF87B681B6840211846C2
:1024CC0000F0F5F80CE07B681A683B681B6819464D
:1024DC00104600F0ECF803E00123FB7300E000BFB2
:1024EC007B68012283F83D207B68002283F83C2026
:1024FC00FB7B18461037BD4680BD80B483B000AF5F
:10250C00786000BF0C37BD4680BC704780B483B088
:10251C0000AF786000BF0C37BD4680BC704780B4FC
:10252C0083B000AF786000BF0C37BD4680BC7047ED
:10253C0080B483B000AF786000BF0C37BD4680BC60
:10254C007047000080B485B000AF786039607B685C
:10255C001B68FB607B68254A934207D07B68B3F10C
:10256C00804F03D07B68224A934208D1FB6823F04A
:10257C007003FB603B685B68FA681343FB607B6825
:10258C001A4A934207D07B68B3F1804F03D07B6823
:10259C00174A934208D1FB6823F44073FB603B68F5
:1025AC00DB68FA681343FB60FB6823F080023B682E
:1025BC005B691343FB607B68FA681A603B689A6836
:1025CC007B68DA623B681A687B689A627B68074AA8
:1025DC00934203D13B681A697B681A637B680122BA
:1025EC005A6100BF1437BD4680BC7047002C0140B7
:1025FC000004004080B487B000AFF860B9607A6026
:10260C00FB681B6A7B61FB681B6A23F00102FB6899
:10261C001A62FB689B693B613B6923F0F0033B61E9
:10262C007B681B013A6913433B617B6923F00A0306
:10263C007B617A69BB6813437B61FB683A699A6179
:10264C00FB687A691A6200BF1C37BD4680BC7047B4
:10265C0080B487B000AFF860B9607A60FB681B6A21
:10266C007B61FB681B6A23F01002FB681A62FB6833
:10267C009B693B613B6923F470433B617B681B03A3
:10268C003A6913433B617B6923F0A0037B61BB6810
:10269C001B017A6913437B61FB683A699A61FB6899
:1026AC007A691A6200BF1C37BD4680BC704780B483
:1026BC0085B000AF786039607B689B68FB60FB6815
:1026CC0023F07003FB603A68FB68134343F0070385
:1026DC00FB607B68FA689A6000BF1437BD4680BC0B
:1026EC00704780B487B000AFF860B9607A603B6027
:1026FC00FB689B687B617B6923F47F437B613B6850
:10270C001A027B681A43BB6813437A6913437B61D3
:10271C00FB687A699A6000BF1C37BD4680BC704765
:10272C0080B485B000AF786039607B6893F83C303A
:10273C00012B01D1022341E07B68012283F83C206C
:10274C007B68022283F83D207B681B685B68FB601A
:10275C007B681B689B68BB60FB6823F07003FB60A5
:10276C003B681B68FA681343FB607B681B68FA685C
:10277C005A607B681B68144A934209D07B681B68BB
:10278C00B3F1804F04D07B681B68104A93420CD184
:10279C00BB6823F08003BB603B685B68BA6813437B
:1027AC00BB607B681B68BA689A607B68012283F8FF
:1027BC003D207B68002283F83C2000231846143708
:1027CC00BD4680BC704700BF002C01400004004097
:1027DC0080B483B000AF786000BF0C37BD4680BCBE
:1027EC00704780B483B000AF786000BF0C37BD4633
:1027FC0080BC704770B500260C4D0D4C641BA410AA
:10280C00A64209D100F022F800260A4D0A4C641B9E
:10281C00A410A64205D170BD55F8043B984701366B
:10282C00EEE755F8043B98470136F2E79428000888
:10283C0094280008942800089828000803460244AD
:10284C00934200D1704703F8011BF9E7F8B500BFBC
:10285C00F8BC08BC9E467047F8B500BFF8BC08BC75
:04286C009E467047CD
:102870000000000000000000010203040607080930
:1028800002030405060708090A0B0C0D0E0F1010B1
:042890000102000041
:042894003101000806
:042898000D01000826
:10289C000100000002000000030000000400000022
:1028AC00FF00FF00FF00FF00FF0CFF00FF00FF0018
:1028BC00FF00070003009900990C03000700FF00BC
:1028CC00FF000000030000000024F40010000000D2
:0428DC0001000000F7
:04000005080011EDF1
:00000001FF
